:020000040800F2
:1000000008110020A1010008A9010008AB010008A7
:10001000AD010008AF010008B101000800000000B8
:10002000000000000000000000000000B301000814
:10003000B501000800000000B7010008B901000880
:10004000BB010008BB010008BB010008BB010008A0
:10005000BB010008BB010008BB01000881140008B7
:10006000BB010008BB010008BB010008BB01000880
:10007000BB010008BB010008BB010008BB01000870
:10008000BB010008BB010008BB010008BB01000860
:10009000BB010008BB010008BB010008BB01000850
:1000A000BB010008BB010008BB010008BB01000840
:1000B00061220008A9220008BB010008BB0100085A
:1000C000BB010008BB010008BB010008BB01000820
:1000D000BB01000811250008BB010008BB01000896
:1000E000BB010008BB010008BB01000800F002F8DA
:1000F00000F047F80AA090E8000C82448344AAF17B
:100100000107DA4501D100F03CF8AFF2090EBAE878
:100110000F0013F0010F18BFFB1A43F0010318473B
:100120000840000028400000103A24BF78C878C179
:10013000FAD8520724BF30C830C144BF04680C60ED
:10014000704700000023002400250026103A28BF35
:1001500078C1FBD8520728BF30C148BF0B60704739
:10016000662903F08883002070471FB500F024FB48
:1001700004000020002102F011FCE0601FBD10B55A
:1001800010BD00F01DFC1146FFF7EFFF02F06AFB07
:1001900000F03BFC03B4FFF7F2FF03BC02F0E4FA0B
:1001A0000948804709480047FEE7FEE7FEE7FEE70B
:1001B000FEE7FEE7FEE7FEE7FEE7FEE70448054947
:1001C000054A064B7047000001220008ED000008B8
:1001D000080B002008110020080D0020080D002049
:1001E000704700000FB4044910B503AA029800F04C
:1001F000D1FA10BC5DF814FB040000200FB41CB54C
:10020000074B06AA7B4469460090059800F0A9FABE
:100210000020694600F0B8FA1CBC5DF814FB000031
:10022000810500002DE9F0474FF0000A8946044699
:10023000C0F820A02046E1688847002876D025280D
:1002400006D0D4E901219047206A401C2062F1E7E2
:10025000E168204600258847C4F81CA00646002710
:10026000C4F818A02A2E09D0304602F076FA38B326
:1002700004EB8708303EC8F8186019E059F8041BF1
:10028000204604EB87029161E1688847012F06460A
:1002900018D1E069002820DA25F020051DE0D8F803
:1002A000180000EB800006EB40003038C8F818005A
:1002B0002046E1688847064602F04FFA0028EED152
:1002C000012F0AD02E2E08D12046E16888477F1CD6
:1002D0000646022F45F02005C4DBA069002803DA9A
:1002E000404245F00105A061E80701D025F0100566
:1002F000B6B1A6F14100192802D8203645F40065B0
:100300004A463146204625604D46FFF729FF58B141
:10031000012806D0ED1D25F0070000F1080989E746
:1003200004E005F1040985E730468AE7206ABDE864
:10033000F087704770477047704770472DE9FF4F4F
:100340000C461E464FF0FF378BB0D2E90001DDF8B6
:1003500060800A908A46C1F30A5505B93D460021DE
:1003600008464FF00000BAF1000F00F4400005DA33
:1003700000EB80004FF4400101EA50004FEA905931
:10038000B9F1010F00DDB9460A9850EA4A000ED0D3
:1003900044F61050A5F2FF3545432F14B8F1000F75
:1003A0001ED07542291E1EDDC9F100021CE0B8F105
:1003B000010F4FF0000001D0302103E0F24305E0CF
:1003C0002154401CB042FBDB304600220021215466
:1003D0000B99C1F80880C1E900200FB0BDE8F08F8B
:1003E000BD1B6D1CDEE74A4600DA694206A800F034
:1003F0006DFA06AB93E8070003AB83E807005046AD
:100400000A9900F04BFB8DE80700A0F500501F385B
:1004100000900398002D0ADD42F21F014A4608446D
:10042000002303A90390684600F0B4FD09E0A0F59D
:1004300000504A461F38002303A90390684600F085
:10044000BEFD8DE807000004000C03D04FF0FF3024
:10045000410800E01046B8F1000F03D000220092DE
:1004600015461EE0751E05D400F0AAF9303262551B
:100470006D1EF9D5B3460122084302D000227F1C2D
:1004800004E02078302801D100227F1E002A09973D
:1004900084D01DE0112D07DA00F092F93032625558
:1004A0006D1C50EA0102F5D1084302D00098C8B192
:1004B0000EE00021681E05E0235C625C6354225458
:1004C000401E491C8142F7DBAB46A81B401E099029
:1004D000002004F80B000B98099AC0F80880C0E9C6
:1004E000002B7AE711264FF0000857E72DE9F04F6F
:1004F00088460446D21D22F0070191B0D1E90001DF
:10050000CDE90A0102F015F902460B98C00F01D09F
:100510002D2007E02068810701D52B2002E0202153
:1005200001EAC000032A099001D0072A05DB03462F
:100530004146204600F08AF90BE12078800601D57B
:10054000E06900E00620B8F1650F814606D0B8F1F9
:10055000660F18D0B8F1670F70D131E00020B9F103
:10056000110F009001DB112301E009F101030AAA38
:1005700001A90CA8FFF7E2FEDDE90C70002609F1E5
:100580000105834647E001204B4600904FF00047AD
:100590000AAA01A90CA8FFF7D1FEDDE90DB00C995C
:1005A0005D46002610B909F101000D18B9EB0500F0
:1005B00003D4C0F1FF3609F10105A5EB09002BE0DA
:1005C000B9F1010F01DA4FF001090020B9F1110F63
:1005D0000090484601DD112300E003460AAA01A964
:1005E0000CA8FFF7ABFEDDE90C704D4600268346F4
:1005F000207800070AD4AB4500DA5D4601A8012D3A
:1006000004DD411911F8011C302907D04F4502DAE9
:1006100017F1040F04DA012082460FE06D1EEEE7A9
:10062000002F02DCED1B3E4403E0781CA84200DDF5
:100630007D1CB81B00F1010A4FF00047207800072D
:1006400003D4AA4501DB4FF0FF3A0021B7F1004F78
:100650000DF143088DF8431024D002202B23002FE6
:1006600001DA7F422D230A21021EA0F1010000DCE5
:100670005FB197FBF1FC97FBF1F201FB1C7C174685
:100680000CF1300C08F801CDEEE7A8F10100037081
:100690002188090501D5452100E06521A0F1010867
:1006A00000F8011C09980FA9A1EB0807FF1D00B174
:1006B0000120411901EBEA70A1693844081A401E73
:1006C000A0612078C00602D42046AFF300800998CC
:1006D00028B1D4E901219047206A401C206220788B
:1006E000C00622D52046AFF300801EE0002E04DBBA
:1006F000B34502DD01A8805D00E03020D4E901218E
:100700009047206A401C2062761CAAF101005FEA33
:10071000000A0AD100F050F8C0680168405CD4E9D2
:1007200001219047206A401C2062281EA5F1010586
:10073000DCDC07E0D4E9012118F8010B9047206ABE
:10074000401C2062381EA7F10107F3DC2046AFF3FE
:100750000080032011B041E601694A1C026108785B
:10076000704700B58FB0CDE90131002105910549F1
:100770007944CDE9031011466846FFF753FD0FB0E9
:1007800000BD0000E5FFFFFF0A6802F8010B0A60E8
:1007900070470000074B70B50D467B44FFF7E1FF43
:1007A0000446284600F004F910B14FF0FF3070BD48
:1007B000204670BDAB20000000487047C80A0020EA
:1007C00030B5B0F10A024FEA900E71F100034EEA23
:1007D000817EB0EB0E0061EB91014FEA101E4EEAF4
:1007E000017E10EB0E0041EB11114FEA102E4EEA84
:1007F000016E10EB0E0041EB11214FEA104E4EEA54
:10080000014E10EB0E0041EB1141401841F1000187
:100810004FEAD00040EA41704FEAD10110EB800569
:100820004FEA810444EA907444EB01046D1944EBEF
:100830000404521BA3414FF0000348BF0A3200D505
:1008400030BD401C41F1000130BD00002DE9F041F8
:100850001F46044603260168072A01F4006004DBF2
:1008600008B116A505E016A503E008B115A500E03E
:1008700015A521F010002060A069C01EA0610FB175
:10088000401EA0612046AFF300804FB1D4E90121A2
:1008900038469047206A401C2062C01C206206E057
:1008A000206AFAE7D4E9012115F8010B9047761E7A
:1008B000F8D22046AFF30080BDE8F0814E414E00F3
:1008C0006E616E00494E4600696E66002DE9F04784
:1008D000814616468AB0354878440DC88DE80D002B
:1008E00032487844801C03AC0DC884E80D0041F602
:1008F0009B300844372190FBF1F290FBF1F5A5F114
:10090000800501FB12041B3C02D56442012000E07B
:100910000020DFF898A080460027FA44AAF1BE0A1A
:100920000EE0E0070AD03246684607EB4701012394
:100930000AEB810100F043FB8DE8070064107F1C87
:10094000002CEED1194F7F44AE3F19E0E80715D0D7
:1009500007EB04100DF1180A90E80E008AE80E006B
:10096000C068F04201D1981908903246012306A9C7
:1009700003A800F024FB03AB83E807006D10641CA0
:10098000002DE3D14FF0010332466946B8F1000F64
:1009900003A802D000F0FEFA01E000F010FBC9E964
:1009A0000001C9F808200AB0BDE8F087343800001B
:1009B000007B00F08000704700487047A80A0020C4
:1009C0007546FFF7F9FFAE4605006946534620F02D
:1009D0000700854618B020B5FFF7F0FBBDE82040C2
:1009E0004FF000064FF000074FF000084FF0000BEB
:1009F00021F00701AC46ACE8C009ACE8C009ACE89E
:100A0000C009ACE8C0098D46704710B50446AFF385
:100A100000802046BDE81040FFF7BCBB4FF0013C12
:100A200050F8042B51F8043B9A4221D1A2EB0C035D
:100A3000934313EACC1317D150F8042B51F8043B1D
:100A40009A4215D1A2EB0C03934313EACC130BD1BA
:100A500050F8042B51F8043B9A4209D1A2EB0C0345
:100A6000934313EACC13DBD04FF00000704700BF74
:100A7000D01A01BAB1FA81F101F0180122FA01F09D
:100A8000CB40C1F12001DBB2C0B2C01A2CFA01F395
:100A9000D11A914311EAC311E6D170475FEA400CC5
:100AA00008BF91F0000F4FEA8C234FEAC12243EABE
:100AB00051514FEA1C5018BF00F5F0404FEA30008A
:100AC00018BF41F000415FEA6C5C00F02980BCF186
:100AD000FF3F08BF40F080407047130C06BF120470
:100AE0004FF0100C4FF0000C130E04BF12020CF16B
:100AF000080C130F04BF12010CF1040C930F04BF78
:100B000092000CF1020CD30F04BF52000CF1010C47
:100B100011464FF00002A0F11F00A0EB0C0070473F
:100B200011F0004F08BF704731F000413FF4D5AFDE
:100B30000B0C06BF09044FF0100C4FF0000C0B0E0D
:100B400004BF09020CF1080C0B0F04BF09010CF1E2
:100B5000040C8B0F04BF89000CF1020CCB0F04BFF7
:100B600049000CF1010CCCF12003A0EB0C0022FA9F
:100B700003F302FA0CF241EA030100F101007047AD
:100B800020F07F4C80EA030023F07F47ACEB0703A3
:100B900003F57C5300F0004003F1FF032DE9804989
:100BA0004FEA154B09B44FEA144325EA0B4E24EAE9
:100BB00003480FF2042606EB132749083E785FEA44
:100BC000320203FB0667C7F5000707FB06F64FEA8C
:100BD00054374FEAD64606F1020607FB066CCCF105
:100BE000005C4FEA1C472CEA074C07FB06F40CFBA1
:100BF00006F504EB15464FEA961634BF00204FF079
:100C000000404FEAD13706FB07FC4FEA1C4C0CFBB7
:100C10000BF7D21B03FB0CF761EB07010CFB0EF784
:100C2000B0EB074072EB17420CFB08F734BFA2EBA6
:100C30000742B2EB074261EB17414FEA0C444FEA1F
:100C4000910706FB07FC4FEA1C4C0CFB0BF7B0EBC3
:100C5000C74072EB573203FB0CF734BFA2EBC7421D
:100C6000B2EBC74261EB57310CFB0EF7B0EBC7009C
:100C700072EB57720CFB08F734BFA2EBC702B2EB62
:100C8000C70261EB5771039F4FEA816141EA9211FC
:100C900004EBCC044FEAD1374FEA826206FB07FC33
:100CA00042EA90124FEA80604FEA1C4C0CFB0BF7B3
:100CB000D21B03FB0CF761EB07010CFB0EF7B0EB4B
:100CC000074072EB17420CFB08F734BFA2EB074258
:100CD000B2EB074261EB17414FEA8C554FEA91079F
:100CE00004EB9C2406FB07FC4FEA1C4C0CFB0BF7A7
:100CF000B0EBC74072EB573203FB0CF734BFA2EBEB
:100D0000C742B2EBC74261EB57310CFB0EF7B0EBB9
:100D1000C70072EB57720CFB08F734BFA2EBC70297
:100D2000B2EBC70261EB577115EB4C254FEA8161BD
:100D300041EA92114FEA82624FEAD13742EA9012B9
:100D400006FB07FC44F100044FEA80604FEA1C4CAC
:100D50000CFB0BF7D21B03FB0CF761EB07010CFB41
:100D60000EF7B0EB074072EB17420CFB08F734BFED
:100D7000A2EB0742B2EB074261EB174115EB1C15E2
:100D80004FEA813141EA92414FEA823242EA90428F
:100D90004FEA80304FEA0C7644F1000448EA0343FE
:100DA0004EEA0B484FF0000EB2EB080C71EB030754
:100DB00024BF624639464EEB0E0E4FF0000B001872
:100DC000524149414BEB0B0BB2EB080C71EB0307A3
:100DD0007BF1000B24BF624639464EEB0E0E4FF0FE
:100DE000000B0018524149414BEB0B0BB2EB080CC6
:100DF00071EB03077BF1000B24BF624639464EEBD3
:100E00000E0E51EA020718BF46F0010616EB0E76E9
:100E100055F1000254F1000103D5BDE88901BDE898
:100E20000088BDE88901BDE80048B619524141EB90
:100E30000101A3F10103704780807F7E7D7C7B7A76
:100E40007978777676757473727171706F6E6E6D76
:100E50006C6C6B6A6A69686867666665646463631C
:100E600062616160605F5F5E5E5D5D5C5C5B5B5AA2
:100E70005A5959585857575656555555545453530F
:100E800052525251515050504F4F4F4E4E4D4D4D6A
:100E90004C4C4C4B4B4B4A4A4A49494948484847B5
:100EA00047474746464645454544444444434343F3
:100EB0004342424242414141002B9C4630D477009C
:100EC0002BD01CB54FEA370703B44FF010004FF09A
:100ED0001001BAF1000F06D0BCF1000FDCBF40F0EA
:100EE000080040F008014FF000000FBCBDE81040C2
:100EF0000BF1010BBBF1010F08BF5FEA170722BF1F
:100F000012F1010211F101014FF0004143F1000320
:100F100000F0004043EA00007047F9D35708D0E7DB
:100F200046EA064613F1400F4FEA16461FDD13F15D
:100F3000200FDFBF16430A46002120335B42BED09C
:100F4000C3F1200746EA064602FA07F74FEA1646BB
:100F500046EA0706C3F1200722FA03F201FA07F76F
:100F600021FA03F14FF0000342EA0702A7E746EA3D
:100F7000020646EA06464FEA164646EA0106BCBFA6
:100F800046EA0646360C4FF000034FF000024FF0E1
:100F9000000194E72DE9804C9A46934670B491E89D
:100FA000380007C831EA400C48BF34EA430C03D587
:100FB000FFF7E6FDFFF780FFF0BCBDE8008C2DE9F0
:100FC000804C9A46934670B491E8380007C810F0F8
:100FD000804F08BF13F0804F03D100F005F8FFF7F2
:100FE0006BFFF0BCBDE8008C20F07F4780EA030077
:100FF00023F07F4C07EB0C03A3F57C5300F000407B
:10100000A3F1FE0392F0000F00F0B38095F0000F03
:1010100000F077802DE901494FEA11404FEA14466C
:1010200021EA004800FB06FC24EA064708FB06F616
:1010300007FB08F800FB07F718EB06484CEB164CCB
:101040004FEA124B18EB07484FEA15464CEB174096
:1010500022EA0B4E0BFB06FC25EA06470EFB06F6C2
:1010600007FB0EFE0BFB07F71EEB064E4CEB164C78
:101070004FF000061EEB074E4CEB174B18EB0B081E
:1010800040F1000018EB0E0B58EB000840F1000097
:101090008F1A4FF000013CBFC943661B14BFB5EB6C
:1010A000040C00213CBFC943F61B4FEA17444EEA2B
:1010B0008E0E27EA04454FEA1C4704FB07622CEA20
:1010C000074C05FB07F70CFB05F604FB0CFC16EBC5
:1010D000074642EB174216EB0C4642EB1C421BEB59
:1010E000060658EB0202414146EA9E0601D5BDE8DC
:1010F0000189B619524141EB0101A3F10103BDE899
:1011000001894FEA14454FEA114724EA054621EACE
:10111000074C05FB07F406FB07F70CFB06F105FB84
:101120000CFC11EB074144EB17444FEA124711EB5B
:101130000C4144EB1C4422EA074C05FB07F206FB7A
:1011400007F70CFB06F605FB0CFC16EB074642EB1B
:10115000174216EB0C4642EB1C456A1854F100018D
:1011600048BF7047B619524141EB0101A3F1010399
:10117000704795F0000F37D04FEA11424FEA1447FD
:1011800021EA024624EA074C02FB07F106FB07F7B7
:101190000CFB06F402FB0CFC14EB074441EB17417B
:1011A0004FEA154714EB0C4441EB1C4125EA074C70
:1011B00002FB07F506FB07F70CFB06F602FB0CFC2F
:1011C00016EB074645EB174516EB0C4645EB1C4264
:1011D000121951F1000148BF7047B619524141EB55
:1011E0000101A3F1010370474FEA14454FEA11478B
:1011F00024EA054621EA074C05FB07F106FB07F741
:101200000CFB06F24FF0000605FB0CFC12EB07424C
:1012100041EB174112EB0C4251EB1C4148BF7047A8
:10122000921841EB0101A3F10103704721B18268DB
:1012300042F00102826003E0826822F001028260D3
:101240007047000010B504461248844208D10121BD
:10125000401500F00BFD0021601500F007FD17E0C0
:101260000D48844208D10121001500F0FFFC002147
:10127000201500F0FBFC0BE00848844208D1012156
:10128000C80300F0F3FC00214FF4004000F0EEFC36
:1012900010BD00000024014000280140003C014036
:1012A0000146C86C80B270470246002013680B40AC
:1012B0000BB1012000E000207047000030B502466D
:1012C0000020002350680F4C20400D790C6844EA40
:1012D00005242043506090680B4C2040D1E9025413
:1012E0002C434D7944EA450420439060D06A20F4B1
:1012F00070000C7C641EE4B2234340EA0350D062C9
:1013000030BD0000FFFEF0FFFDF7F1FFF0B5044631
:101310000D4600200021092D11DDE068A5F10A0627
:1013200006EB4607072606FA07F18843A5F10A06E9
:1013300006EB460603FA06F10843E0600CE020697C
:1013400005EB4507072606FA07F1884305EB450636
:1013500003FA06F108432061072A0FDA606B561E74
:1013600006EB86071F2606FA07F18843561E06EB92
:10137000860605FA06F10843606322E00D2A0FDABB
:10138000206BD61F06EB86071F2606FA07F1884357
:10139000D61F06EB860605FA06F10843206310E027
:1013A000E06AA2F10D0606EB86071F2606FA07F192
:1013B0008843A2F10D0606EB860605FA06F10843FE
:1013C000E062F0BD21B1826842F4A002826003E0D5
:1013D000826822F4A00282607047000008B50121F3
:1013E000042000F033FC0420ADF8000010208DF83C
:1013F000030003208DF802006946044800F00EF94E
:101400000421024800F0DEF908BD00000008014098
:1014100000B587B001214FF4017000F017FC4FF4C4
:10142000404000F0F7FB0820ADF8040000208DF8E4
:10143000070002208DF8060001A90F4800F0EEF821
:101440000E48FFF7FFFE002002908DF80C000120EF
:101450008DF80D004FF460200490002005900120CD
:101460008DF8180002A90548FFF728FF012103485D
:10147000FFF7DCFE07B000BD00080140002401407A
:1014800010B5022000F04CF838B104480068401C48
:1014900002490860022000F03DF810BD180000204D
:1014A0001FB50121084600F0D1FB0121042000F006
:1014B000CDFB0220ADF8000048208DF8030003208A
:1014C0008DF802006946124800F0A8F801210020BA
:1014D00000F084F80220029000208DF80C000C200F
:1014E0008DF80D0001208DF80E0002A800F02CF8F8
:1014F00007208DF8040002208DF8050001208DF8EA
:1015000006008DF8070001A800F036FA1FBD0000A4
:1015100000080140014908607047000014040140C0
:10152000014600200022074B1B6803EA0102054B1D
:1015300014331B680B4013B10AB1012000E00020F6
:101540007047000000040140002123498279002AED
:101550003AD00A46126803689A430B461A600A1D7D
:10156000126803689A430B1D1A60027911440A68D5
:1015700003681A430A60184A0832126803689A43DB
:10158000154B08331A601A1D126803689A43124BF0
:101590000C331A604279102A0ED11A1F12680368A0
:1015A0001A430D4B08331A601A1D126803681A4358
:1015B000094B0C331A600DE00749427911440A685F
:1015C00003681A430A6005E0027911440A68036857
:1015D0009A430A60704700000004014030B50022C1
:1015E0008B071C0F0F2303FA04F20B4B8C1053F8DC
:1015F00024309343084C8D1044F8253023468C103A
:1016000053F824308C07240F00FA04F42343024CCF
:101610008D1044F8253030BD080001402DE9F0411F
:10162000024600250026002000230024002791F810
:1016300003C00CF00F0591F803C00CF0100CBCF1C6
:10164000000F03D091F802C04CEA050591F800C0E4
:10165000BCF1000F31D0146800202BE04FF0010CDA
:101660000CFA00F3B1F800C00CEA03069E4220D148
:1016700083004FF00F0C0CFA03F7BC4305FA03FC90
:101680004CEA040491F803C0BCF1280F06D14FF0D6
:10169000010C0CFA00FCC2F814C00AE091F803C077
:1016A000BCF1480F05D14FF0010C0CFA00FCC2F858
:1016B00010C0401C0828D1D31460B1F800C0BCF1A0
:1016C000FF0F34DD546800202EE000F1080C4FF0CD
:1016D000010808FA0CF3B1F800C00CEA03069E42B8
:1016E00021D183004FF00F0C0CFA03F7BC4305FA2D
:1016F00003FC4CEA040491F803C0BCF1280F05D1A7
:1017000000F1080C08FA0CF8C2F8148091F803C034
:10171000BCF1480F07D100F1080C4FF0010808FA9E
:101720000CF8C2F81080401C0828CED35460BDE8E5
:10173000F0810000F0B50A460023002400210025B6
:1017400000F00046B6F1004F02D11D4EF16901E0F4
:101750001B4E7168C0F3034583B200F44016B6F522
:10176000401F08D121F07061154E766826F0706632
:10177000134F7E6012E000F48016B6F5801F06D18C
:10178000032606FA05F4A14341F0706106E0460D18
:10179000360103FA06F6B14341F0706122B1460DFD
:1017A000360103FA06F6314300F00046B6F1004F69
:1017B00002D1034EF16101E0014E7160F0BD000005
:1017C0000000014041617047016170472DE9F04F11
:1017D0008FB00024A14607E0032000F065F8044420
:1017E00009F1010000F0FF09B9F1320FF4DB2046E6
:1017F00001F0B8FE834601F041FD07460022234B6D
:1018000001F0BCF9054601F011FB044620480068D0
:1018100001F034FDCDE90A011D4801681D4800684A
:1018200001F058FD054601F029FDCDE906011A48F1
:10183000006801F023FDCDE90201204601F023FB01
:101840000022164BCDE9000101F098F90546DDE9CB
:10185000022301F02BFB0746114A124B01F026FB35
:10186000CDE90401DDE9062301F020FBCDE9080103
:10187000DDE90A2301F082F9CDE90C0101F0A4F8B9
:10188000824650460FB0BDE8F08F0000000049408E
:10189000100000200C0000201400002000FEAF40CB
:1018A000EC51B81E85EBF13F10B504460723012229
:1018B00021460948FFF72AFD01210748FFF782FD6D
:1018C00000BF02210448FFF7EFFC0028F9D00248CE
:1018D000FFF7E6FC10BD00000024014070B504468F
:1018E0001E4800681E4908601E4801681E480068BE
:1018F00001F0F0FC1D4908601D4801681B480068A4
:1019000001F0E8FC054629461848006801F050FD42
:101910001849086012480168204601F037FF064662
:1019200014480168304601F065FE05460C48016820
:10193000284601F0CFFC094908600E4801684FF0C5
:101940007E5001F023FF054608480168284601F053
:1019500051FE054908600148006870BD5400002030
:101960003C0000204C0000204800002044000020E3
:10197000500000203800002070B5002100230F2205
:10198000C47804B3154C246804F4E064C4F5E0643E
:10199000210AC1F10403CA40447804FA03F18478AF
:1019A0001440214309010E4C0678A155047804F037
:1019B0001F050124AC4005786D11AD0005F1E0254F
:1019C000C5F8004109E0047804F01F050124AC408B
:1019D000044D0678761145F8264070BD0CED00E008
:1019E00000E400E080E100E002490143024A1160A6
:1019F000704700000000FA050CED00E070B500240F
:101A000019E004F1B001C8B2002100F0DFF80021B4
:101A1000084600F0DBF80021102000F0D7F8002580
:101A200005E00121002000F0D1F8681CC5B2802D2E
:101A3000F7DB601CC4B2082CE3DB70BD70B5044654
:101A40000D4605F1B001C8B2002100F0BFF8102129
:101A500041EA1410002100F0B9F804F00F0141F040
:101A60000100002100F0B2F870BD00002DE9F04146
:101A700007460E46904600250024A8F12000C5B276
:101A80007F2F02DD0027B01CC6B231463846FFF773
:101A9000D5FF002408E004EB05110F4A505C01213A
:101AA00000F094F8601CC4B2082CF4DB701CC1B2C6
:101AB0003846FFF7C3FF002409E004EB05110831A5
:101AC000054A505C012100F081F8601CC4B2082C6A
:101AD000F3DBBDE8F0810000A23A00082DE9FF5FCA
:101AE000074691461D460E9E4FF0000A002433E043
:101AF000281B401EC1B20A2000F0F4FEB9FBF0F032
:101B00000A21B0FBF1F201FB1208BAF1000F13D168
:101B1000681EA04210DDB8F1000F0BD1B34606EBF2
:101B2000DB71491001FB0471C8B220220199FFF753
:101B30009DFF0FE04FF0010AB34606EBDB71491041
:101B400001FB0471C8B208F13001CAB20199FFF774
:101B50008DFF00BF601CC4B2AC42C9DBBDE8FF9F73
:101B60002DE9F04104460F46154600260EE0AA5D19
:101B700039462046FFF77AFF04F10800C4B2782CFA
:101B800002DD0024B81CC7B2701CC6B2A85D0028D4
:101B9000EDD1BDE8F08100003EB50848006801F0D5
:101BA0006DFB044622460B4605A16846FEF726FB60
:101BB0006A4602213820FFF7D3FF3EBD34000020E3
:101BC0004241543A252E32665600000070B5054653
:101BD0000C464FF480510D48FFF7F4FD2CB14FF443
:101BE00080710B48FFF7F0FD04E04FF48071084866
:101BF000FFF7E8FD284600F0F5F90A2000F0FEFDA9
:101C00004FF480510148FFF7DFFD70BD000C01402B
:101C10000008014001460020034A506820F440407B
:101C200008435060704700000010024029B1064A86
:101C3000D2690243044BDA6104E0034AD269824369
:101C4000014BDA61704700000010024029B1064ADA
:101C500092690243044B9A6104E0034A9269824309
:101C6000014B9A61704700000010024029B1064AFA
:101C7000D2680243044BDA6004E0034AD26882432C
:101C8000014BDA60704700000010024030B50021BF
:101C90000022002400232D4D6D6805F00C0121B1B8
:101CA000042905D0082923D105E0294D056022E04B
:101CB000274D05601FE0254D6D6805F47012234D1A
:101CC0006D6805F48034022505EB92421CB9214D64
:101CD000554305600BE01D4D6D6805F400351DB1E1
:101CE0001C4D5543056002E0194D5543056002E067
:101CF000174D056000BF00BF144D6D6805F0F00181
:101D00000909154D6B5C0568DD4045600F4D6D6838
:101D100005F4E061090A104D6B5C4568DD408560A3
:101D20000A4D6D6805F46051C90A0B4D6B5C45683E
:101D3000DD40C560054D6D6805F44041890B074DD8
:101D40006B5CC568B5FBF3F5056130BD0010024062
:101D500000127A0000093D005800002068000020B1
:101D600021B1028842F04002028004E002884FF66E
:101D7000BF731A40028070470246002013890B404F
:101D80000BB1012000E0002070478181704710B541
:101D90000022028802F441520B884C8823438C882D
:101DA0002343CC8823430C8923434C8923438C89C8
:101DB0002343CC8923431A430280838B4FF2FF7461
:101DC000234083830B8A038210BD000000B587B0D7
:101DD00001210C20FFF73AFF01217E48FFF7AAFC02
:101DE0004FF42040ADF8180018208DF81B00032098
:101DF0008DF81A0006A97848FFF710FC4FF46041EF
:101E00007548FFF7E1FC4FF48070ADF81800102022
:101E10008DF81B0003208DF81A0006A96F48FFF704
:101E2000FDFB4FF480716D48FFF7CEFC4FF400606E
:101E3000ADF8180006A96948FFF7F0FB4FF4006100
:101E40006648FFF7C1FC4FF48050ADF8180006A9B2
:101E50006148FFF7E3FB4FF480515F48FFF7B2FCA6
:101E600001218803FFF7E2FE0020ADF804004FF4E3
:101E70008270ADF806000220ADF80A000120ADF82E
:101E80000C000020ADF808004FF40070ADF80E0013
:101E90000020ADF81000ADF812000720ADF81400D6
:101EA00001A94F48FFF773FF01214D48FFF758FF85
:101EB0004FF400614948FFF787FC012000F078FCEF
:101EC0004FF400614548FFF77DFC0A2000F096FCC6
:101ED0004FF400614148FFF777FC0021AE20FFF787
:101EE00075FE00210846FFF771FE00211020FFF764
:101EF0006DFE00214020FFF769FE00218120FFF7E1
:101F000065FE0021CF20FFF761FE0021A120FFF731
:101F10005DFE0021C820FFF759FE0021A620FFF733
:101F200055FE0021A820FFF751FE00213F20FFF7BA
:101F30004DFE0021D320FFF749FE00210846FFF7A0
:101F400045FE0021D520FFF741FE00218020FFF74C
:101F50003DFE0021D920FFF739FE0021F120FFF7D7
:101F600035FE0021DA20FFF731FE00211220FFF7B5
:101F70002DFE0021DB20FFF729FE00214020FFF786
:101F800025FE00212020FFF721FE00210220FFF77F
:101F90001DFE00218D20FFF719FE00211420FFF700
:101FA00015FE0021A420FFF711FE0021A620FFF757
:101FB0000DFE0021AF20FFF709FE0021AF20FFF743
:101FC00005FEFFF71BFD00210846FFF737FD07B0B0
:101FD00000BD000000023000000C0140000801407C
:101FE0000038004070B50446002504E0681CC5B206
:101FF000C82D00DD70BD02210548FFF7BDFE002899
:10200000F4D021460248FFF7C0FE00BFF2E700000F
:10201000003800401FB501210846FFF707FE42F2D5
:102020000F70ADF808004720ADF804000020ADF8AF
:102030000A00ADF8060001A94FF0804000F016FA42
:1020400001221146900700F007FA1C208DF80000CD
:1020500002208DF801008DF8020001208DF80300A8
:102060006846FFF789FC0121880700F0D8F91FBDF9
:1020700010B500F001F810BD0CB5002001900090E3
:102080003348006840F480303149086000BF304870
:10209000006800F4003000900198401C0190009806
:1020A00018B90198B0F5A06FF1D12948006800F483
:1020B000003010B10120009001E000200090009855
:1020C000012843D12348006840F0100021490860EE
:1020D0000846006820F0030008600846006840F0E9
:1020E000020008601A48406819494860084640687C
:1020F00048600846406840F4806048600846406890
:1021000020F47C1048600846406840F4E8104860BD
:102110000846006840F08070086000BF0C48006806
:1021200000F000700028F9D00948406820F0030052
:10213000074948600846406840F00200486000BF18
:102140000348406800F00C000828F9D10CBD0000DD
:1021500000100240002002402DE9FF5F1748006890
:1021600001F08CF804460D461548006801F0E2F9CC
:10217000009001F083F880464FF02232114B00F0BE
:1021800095FE064622462B4600F0F8FC824600F0FB
:102190001BFC0D4908600846006801F06FF8044612
:1021A00022460B4609A101A8FEF728F801AA04213E
:1021B0000020FFF7D5FCBDE8FF9F000024000020B1
:1021C00020000020222204402C000020252E33660F
:1021D0007553762F68000000042808D14FF0E021E5
:1021E000096941F004014FF0E022116107E04FF06E
:1021F000E021096921F004014FF0E02211617047EC
:1022000010B51348006840F0010011490860084605
:102210004068104908400E494860084600680E4969
:1022200008400B4908600846006820F480200860D8
:102230000846406820F4FE0048604FF41F008860A4
:10224000FFF716FF4FF000600449086010BD000062
:10225000001002400000FFF8FFFFF6FE08ED00E06E
:1022600070B50121880700F0E6F8A8B1FFF7AEFAD3
:1022700006463046FFF732FB08490860084600680A
:1022800000F0FCFF044622460B4605A0FDF7AAFF1E
:102290000121880700F0C0F870BD00003400002064
:1022A000252E33660A000000F8B50121384800F0F9
:1022B000C2F800286AD004213648FFF783FA36486E
:1022C0000068401C3449086034493548006801F012
:1022D0005DF90DD23248006800F0D0FF0646314A61
:1022E000314B00F0A3FB044600F06EFB2C49086064
:1022F0002E480088B0F5167F02DB00202B490880AD
:102300002A480088401C4FF4167190FBF1F201FB43
:102310001200274951F8200026490968081A264961
:102320000968084424490860224801681F48028857
:102330000088401C1D4B18801D4840F822101D4885
:102340000068002811DD00201A49086004211148A6
:10235000FFF73AFA10200323009017480268022181
:102360001820FFF7BBFBFFF7F7FE102003230090B8
:102370001148026802211820FFF7B0FBFFF7ECFEBE
:10238000FFF70AFC0121024800F046F8F8BD000002
:1023900000040040000801403000002000007042AE
:1023A000240000209A9999999999B93F2800002012
:1023B0004801002018000020200000207FB50546BD
:1023C0000C4601210220FFF731FCADF80850ADF8B2
:1023D00004400020ADF80A00ADF8060001A90D4840
:1023E00000F044F8012211460A4800F035F81D209B
:1023F0008DF8000002208DF801008DF80200012008
:102400008DF803006846FFF7B7FA0121014800F094
:1024100006F87FBD00040040CA430282704721B124
:10242000028842F00102028004E002884FF6FE7347
:102430001A400280704730B5024600200023002475
:10244000158A05EA0103958905EA010413B10CB167
:10245000012000E0002030BD1AB183890B43838145
:1024600002E083898B438381704700000022028849
:102470001D4B98420ED01D4B98420BD0B0F1804FAF
:1024800008D01B4B984205D01A4B984202D01A4BE9
:10249000984204D14FF68F731A404B881A43174B5A
:1024A000984207D0164B984204D04FF6FF431A408B
:1024B000CB881A4302808B8883850B8803850A4B5F
:1024C00098420BD0094B984208D00E4B984205D049
:1024D0000D4B984202D00D4B984201D10B7A0386E6
:1024E0000123838270470000002C0140003401402A
:1024F0000004004000080040000C004000100040B4
:1025000000140040004001400044014000480140E8
:1025100010B540F225511D4800F04AF810B31B4891
:1025200000F002F9C4B21A48008800F40040C8B9AB
:102530001748008800F4804060B10A2C03D00020C6
:102540001349088020E01248008840F400401049F8
:10255000088019E00D2C06D10D48008840F4804019
:102560000B49088010E00A480088C0F30D000949B3
:102570000C5407480088401C05490880084600881C
:10258000C72801DD0020088010BD00000038014090
:10259000080000208000002021B1828942F400520E
:1025A000828104E082894DF6FF731A408281704770
:1025B00070B50246002400230025002040F66A166C
:1025C000B14200D100BFC1F3421501F01F03012643
:1025D00006FA03F3012D02D19689334006E0022D5D
:1025E00002D1168A334001E0968A33400C1201264C
:1025F00006FA04F41688344013B10CB1012000E04F
:10260000002070BDF0B50346002400260025002000
:1026100040F66A17B94200D100BF1846C1F3421410
:1026200001F01F06012707FA06F5012C01D10C3035
:1026300004E0022C01D1103000E014301AB1076818
:102640002F43076002E00768AF430760F0BD00005A
:102650002DE9F04786B005460E460024A24600BF8D
:10266000A1460027B08900B100BF2F462C8A4CF646
:10267000FF700440F08804432C82AC894EF6F310BE
:102680000440B08831890843718908430443AC8110
:10269000AC8A4FF6FF400440B0890443AC8201A8E5
:1026A000FFF7F4FA1F48874202D1DDF810A001E0DD
:1026B000DDF80CA0A88900F4004040B10AEBCA0084
:1026C00000EB0A1031684900B0FBF1F807E00AEBB3
:1026D000CA0000EB0A1031688900B0FBF1F86420F1
:1026E000B8FBF0F004012009642101FB1089A889DE
:1026F00000F4004040B1322000EBC900B0FBF1F023
:1027000000F00700044308E0322000EB09106421C8
:10271000B0FBF1F000F00F0004432C8106B0BDE8DF
:10272000F08700000038014001468888C0F30800A7
:102730007047490050EAC12018BF04204A0D18BF55
:1027400040F0010040F2FF72B2EB515F08BF40F071
:102750000200012808BF0520704730380A2801D23E
:10276000012070470020704700BF704710B56FF020
:102770000400FFF731FD0A4800680A49B0FBF1F098
:10278000094908700846007800EB4001C1EBC01011
:102790004FF6FF7101EAC0000449088010BD000037
:1027A0006C00002000127A000000002002000020CF
:1027B0000146114A12884A434FF0E0235A61002231
:1027C0009A611A46126942F001021A6100BF4FF085
:1027D000E022106900F001021AB100F48032002AF0
:1027E000F5D04FF0E022126922F001024FF0E02311
:1027F0001A6100229A617047020000200146114AC6
:1028000012784A434FF0E0235A6100229A611A4637
:10281000126942F001021A6100BF4FF0E022106914
:1028200000F001021AB100F48032002AF5D04FF016
:10283000E022126922F001024FF0E0231A61002227
:102840009A6170470000002000BF054A128802F01C
:102850004002002AF9D0C2B2014B1B1D1A807047FA
:102860000038014008B5FFF781FF4FF4E13000F078
:1028700045F8FEF715FE4FF4A060FFF7B5F8FFF737
:10288000A5FAFEF7C5FD40F2CF2142F20F70FFF727
:1028900095FDFFF7BFFBFEF7A1FD0CA20021084646
:1028A000FFF75EF90DA202210020FFF759F9102071
:1028B000032300900A48026802211820FFF70EF94E
:1028C000FFF74AFCFFF768F900BFFEE74765696755
:1028D000657220436F756E746572000043504D0041
:1028E0002000002010B50246012000E050430B1EDE
:1028F000A1F10104E1B2F9D110BD000010B586B01C
:102900000446012144F20400FFF7A0F94FF40070DF
:10291000ADF8140003208DF8160018208DF817006C
:1029200005A91C48FEF77AFE4FF48060ADF814004C
:1029300004208DF8170005A91648FEF76FFE252024
:102940008DF8000003208DF801008DF802000120B1
:102950008DF803006846FFF70FF801940020ADF8EA
:102960000800ADF80A00ADF80C00ADF810000C201E
:10297000ADF80E0001A90848FFF76AFE012240F2F7
:1029800025510548FFF73EFE01210348FFF704FEED
:1029900006B010BD000801400038014010B5002904
:1029A0000AD00878002807D005487844FEF736F8A2
:1029B000002801D0002010BD0248784410BD00005E
:1029C0009E1700009617000021F00042A2F160520D
:1029D000B2F5801F01F0004328BFD2F17F6C0BD904
:1029E0005FEA001C43EAC20242EB507018BF704716
:1029F00028BF20F001007047B2F5801FBCBF184609
:102A000070474FEA410C1CF5001F02D2084600F047
:102A1000B8BE70B500F0F4FA00000089FFF7F6BF09
:102A20004FF00040A0F580007047000010B591EA1B
:102A3000030F48BF83F0004300F13E83841A71EB1B
:102A4000030C05D2121943EB0C03001B61EB0C01C4
:102A5000DFF824E14FEA1154A4EB135C1EEA430FA4
:102A600018BF9EEA445F73D023EA0E03DCF1200E08
:102A700021EA045143F4801332D322FA0CFE10EB06
:102A80000E0023FA0CFE41EB0E01CCF1200E03FAEE
:102A90000EFE10EB0E0051F10001B1F5801FCCF1DC
:102AA000200E32D201EB045112FA0EF2BDE81040B2
:102AB00058BF7047401C38BF5FEA420218BF7047DA
:102AC000002814BF20F0010041F100014FEA41034A
:102AD00013F5001F38BF7047A1F1C04100F0DEBA06
:102AE000012A43EB0302ACF1200CDCF11F0E32BFD4
:102AF0004FF0000E23FA0CF310EB030041EB0451EE
:102B0000B4EB115FD0D0A1EB045101F5801149085D
:102B10005FEA300001EB04510ED350F1000038BFE2
:102B200012FA0EFE08D1BDE81040C9E7401C38BFBC
:102B30005FEA4202CAD1C3E7BDE810404FEA410351
:102B400013F5001F38BF7047A1F1C04100F0A6BACD
:102B50009EEA445F08D011EA5E0FBDE8104004BF52
:102B600001F0004100207047BDE8104070B500F052
:102B700047FA00BF64FBBE3E0000E0FF2DE9C04104
:102B800030B4DFF8A0C23CEA111418BF3CEA1314B9
:102B900000F0EC8081EA03051CEA111444EAD574C4
:102BA00018BF1CEA131500F0C780A4EB05044FF012
:102BB000004545EAC12145EAC32341EA505143EAB1
:102BC000525304F17F74994204F500344FEAC02057
:102BD0004FEAC22208BF904200F09C804FEA136582
:102BE0000FF24016765D4FEA134506FB05F7C7F175
:102BF000807706FB07F74FEAD737A7FB03687642D3
:102C0000C8F58038A7FB06CE38BFA8F1010807FB3E
:102C100008E64FF0000EA6FB028CE6FB03CEDCF1CB
:102C2000000CCEF1004E38BFAEF1010EA6FB0C58E1
:102C30004FF000074FF00005E6FB0E87A1FB08C62A
:102C4000A0FB07CE16EB0E0645F10005E1FB07657C
:102C500015F1E04E7EBFA4F580345FEA46066D4173
:102C600016F1800745F100054FEA17274FEA06667F
:102C700047EA0567A6F1DE46B6F1805F4FEA152503
:102C80001FD9384624F0010C05EBC471BCF1FE6F6E
:102C900001EB0C1102D8F0BCBDE8008124425CBFFE
:102CA00001F5801E9EEAC47F02D4F0BCBDE800811D
:102CB000244238D4F0BCA1F1C041BDE8004100F08D
:102CC000EDB94FEAD22242EA43524FEAD323A7FB9F
:102CD00002864FEAD02040EA415007FB03661EEA15
:102CE0000E0F4FEAD12105FB026658BFA6EB005636
:102CF000B6EB00564FEA520E4EEAC37E18EB0E0EAC
:102D000056EB530EBDD518EB02085E417F1C55F102
:102D10000005B6E74FF480154FF000074FF00006AE
:102D20004FF00008ADE7F0BC4FF0000001F1C041EA
:102D300001F00041BDE8008111EA0C1F0CEA1315F7
:102D400000D00CE013EA0C1F00F025804FF00000CB
:102D5000F0BC81EA030101F00041BDE80081F0BC54
:102D6000BDE8004181EA030100F098B9F0BCBDE87C
:102D7000004170B500F044F9097EFC3E00F007B850
:102D800081EA03014FF0000001F00041704781EA41
:102D9000030100F083B9F0BCBDE800414FF0000032
:102DA00021497047FFFDFBF9F7F5F4F2F0EEEDEB8A
:102DB000E9E8E6E4E3E1E0DEDDDBDAD8D7D5D4D339
:102DC000D1D0CFCDCCCBCAC8C7C6C5C4C2C1C0BF85
:102DD000BEBDBCBBBAB9B8B7B6B5B4B3B2B1B0AF8B
:102DE000AEADACABAAA9A8A8A7A6A5A4A3A3A2A16F
:102DF000A09F9F9E9D9C9C9B9A999998979796952A
:102E000095949393929191908F8F8E8E8D8C8C8BC5
:102E10008B8A89898888878786858584848383824D
:102E2000828181800000FF070000F87F4FEA115384
:102E3000A3F58063D3F11E03A8BFD3F1200C08DBF8
:102E40004FF0004242EAC12252EA505232FA03F0F5
:102E5000704709420BD4102BC4BF0020704703F504
:102E6000787CBCF1FF3F05D04FF0FF3070474FF04A
:102E70000000704770B500F0C3F800BF499224808D
:102E800000207047F0E7B0FA80F310FA03F10AD09F
:102E9000C3F11D0303F580634FEA41504FEA03522B
:102EA00002EBD12170474FF000007047DFF848C1B6
:102EB00070B51CEA111E1EBF1CEA13159EEA0C0F0A
:102EC00095EA0C0F00F06F8081EA030423EA4C13AB
:102ED0004EEAD47E21EA4C1141F4801143F4801370
:102EE000AE44A1FB024CA0FB0365AEF17F7E361918
:102EF00055EB0C05A1FB034C4CF10003A0FB021C9D
:102F000016EB0C06654153F10003094218BF46F069
:102F1000010613F4007F0BD14FEA03314FEA05306D
:102F2000340341EA155140EA16506FF003020AE0FB
:102F30004FEAC3214FEAC520F40241EA555140EA65
:102F400056506FF0020202EB2E4201EB025585EA69
:102F5000CE710AD05FEA440C18BF24F0004450F14F
:102F6000000041F1000120EAD47040F2FE7C62458D
:102F700000D270BDA84214BF4FF080444FF04044CF
:102F8000002E08BF0024BEF1806FA8BFA1F1C04190
:102F9000BDE8704080F282804FF0000001F1C04136
:102FA00001F0004170479EEA0C0F0CEA131518BFA0
:102FB00095EA0C0F06D04FF0000081EA030E0EF0E8
:102FC000004170BD00F01CF88900013E00F007B818
:102FD00000F009B84FEA430C5FEA5C5C08D081EA74
:102FE000030100F05BB84FEA410C5FEA5C5CF6D18C
:102FF0004FF00000014970470000FF070000F87F14
:103000000EF1020E2EF0030E5EF8046B364205D46C
:10301000012A43EB030515F5001F12D8012841EBE7
:10302000010C1CF5001F0CD80ED14FEAD17C15F510
:10303000001F0CEB4C0C0CF1020C08BF4CEBD37CCA
:1030400004E04FF0080C01E04FEAD37C0CEB4C0598
:1030500026FA05F606F00706B6F1040C06D20EEBCA
:10306000860CBDE870404CF0010C6047DFE80CF0C6
:10307000090B02024FF000414FF00000A1F50021C2
:1030800070BD19461046012851EB010418BFD4F554
:10309000001484BF002001F0004170BD0808A0F5B5
:1030A00000114FEA3101704710B591EA030F48BF94
:1030B00083F000433FF5C2AC841A71EB030C07D2D6
:1030C00012198CF0004C43EB0C03001B61EB0C015C
:1030D000DFF8A4E14FEA1154A4EB135C1EEA430F9E
:1030E00018BF9EEA445F00F0B08023EA6E035242AC
:1030F00021EA0451C3EB6E0338BF5B1EDCF1200EE6
:1031000025D322FA0CFE10EB0E0043FA0CFE41EB25
:103110000E01CCF1200E03FA0EFE10EB0E0051F161
:103120000001CCF1200E29D412FA0EF201EB045169
:10313000BDE8104058BF7047401C1CBFB2F1004FA3
:10314000704700280CBF491C20F00100704712EBAB
:10315000020E43EB030218BF4FF0010E4EEA42028B
:10316000ACF1200CDCF11E0E54D943FA0CFE10EB2E
:103170000E0051F1FF31CCF11E0ED5D50EF1010E2E
:1031800012FA0EFE404141EB010101EB445C5FEAA3
:103190005C5C10D910EBDE7001EB045138BFBEF15E
:1031A000004FBDE8104018BF704700280CBF491CF5
:1031B00020F00100704730D24FEAD42C11F50011F5
:1031C00024F400641BD0B1FA81F20B3AA41AA41EB5
:1031D000D2F12003914030FA03F31943904001EB00
:1031E000CC71002C01EB0451BDE81040A8BF704722
:1031F00001F1C0414FF0000001F000417047B0FA0A
:1032000080F310FA03F100D110BDE41A173C480511
:10321000C90AE4E701EB045110BD491001EB045168
:10322000BDE810404FEA300002E04FF00001704767
:103230004A0008BF0042F8D0B2F5001F28BF70470F
:1032400001F000414FF0000070479EEA445F07D054
:1032500011EA5E0FBDE8104004BF00210020704756
:10326000BDE8104070B5FFF7CBFE00BF40DFF63E73
:1032700083F00041104670470000E0FF43004FEA32
:10328000D30C4FEA3C0C43401FBF40070CF1605188
:1032900013F0FE4F70471CF0006F03D100200CF0BC
:1032A000004170470CF0004343EA507010B540EA0B
:1032B000CC0000F020FA00BF000000924FEA0001AD
:1032C000FFF7ECBE4FF000414FF00000A1F50021E8
:1032D0007047000090EA010F48BF81F0004100F103
:1032E0005C82421A3CBF801A89184FEAD0524FF0D4
:1032F0007F4C1CEA410FA2EBD15318BF9CEA026F2E
:1033000000F03B804FF0004C4CEA00204CEA0121D9
:1033100021FA03FC10EB0C0C1ED202F1FF325FEA23
:103320001C2040EBC25038BF70471CF07F0F4FEAA3
:10333000400C18BFBCF17F4F38BF7047C3F120036A
:10334000994008BF20F00100BCF17F4F38BF7047A3
:10335000A0F1C04000F015BA4FEA3C00000A40EB73
:10336000C25028BF1CF0FF0F4FEA400CE6D018BF38
:10337000BCF17F4F38BF7047EAE79CEA026F05D087
:1033800010EA5C0F08BF00F00040704710B500F075
:10339000B2F900BF64FBBE3E401058BFC0F14040D0
:1033A000491058BFC1F140418142EFF3008070479E
:1033B0004FF47F0C1CEAD0121EBF1CEAD11392EA14
:1033C0000C0F93EA0C0F00F0858090EA010F48BFC4
:1033D00042F4807240F4000C41F400002CF07F4174
:1033E00020F07F4000B58142A2EB03020FF2081CDF
:1033F000ACEB504EC0F100009EF800E04FEA4E0EDC
:1034000000FB0EFC38BF49004FEA2C1C02F5FA0203
:103410000CFB0EF34FEACE1E4FEA112C4FEAC121EE
:103420000EEB635E42EB22420EFB0CFC4FEA1C5398
:1034300000FB03114FEA112C4FEA01310EFB0CFC8B
:103440004FEADC4C00FB0C11C14228BF09184CEBC1
:1034500003335DF804EB10EB410143EBC250B2F5CE
:103460007C0F38BF704729D512F0F00F1CBF00F158
:10347000C04000F0004070470081828384858687C9
:1034800088898B8C8D8E8F919293959697999A9C23
:103490009D9FA0A2A3A5A7A8AAACAEB0B2B3B5B792
:1034A000B9BCBEC0C2C5C7C9CCCED1D4D7D9DCDF68
:1034B000E2E6E9ECF0F3F7FAFE0000004FEA400C18
:1034C0000CF1807CBCF17E4F28BF7047B0F1C0404A
:1034D00000F057B990EA010F0CEAD11348BF42F44B
:1034E0008072624538BF634507D213F47F0F16D050
:1034F00080EA010000F00040704710B500F0FBF8D2
:10350000097EFC3E00F005B880EA010000F00040B2
:10351000704780EA010000F0004000F032B912F478
:103520007F0F04BF0248704780EA010000F029B90C
:103530000000C07F10F0004148BF4042B0FA80F365
:1035400010FA03F2C3F19D030BD051EAC35101EB12
:103550001220530638BF704700F1010008BF20F069
:1035600001007047B0FA80F310FA03F2C3F19D0333
:103570000AD0D90501EB1220530638BF704700F17D
:10358000010008BF20F001007047000050EA010C64
:1035900000F113801CF5000F58BFBCF5000F01D4DB
:1035A0008842704707D710F5000F58BF11F5000F7C
:1035B00015D488427047894270471CF5000F04D526
:1035C000BCF5000FF7D5814270474FF0807C1CEBB3
:1035D000400F38BF1CEB410F01D28142704710B53C
:1035E00000F089F8922449004FF000504FF08051CC
:1035F000FFF7D2BE4FF47F0C1CEAD0121EBF1CEAAC
:10360000D11392EA0C0F93EA0C0F00F0478090EA76
:10361000010F48BF42F480724FF0004C4CEA00208A
:103620004CEA012102EB0302A0FB0113A2F5000208
:10363000002918BF43F001035B0028BF4FEA3303A2
:1036400042EB22425FEA132C4CEBC2502EBFBCEB84
:10365000436FB2F57C0F70474FEA036CBCF1004F2B
:1036600008BF20F00100B2F57C0F38BF70470BD5C2
:1036700082F0FF0212F5803FC8BF704700F1C040E2
:10368000D8BF00F00040704700F5000C5FEA4C0C1A
:1036900048BF7047B0F1C04000F073B890EA010F26
:1036A0000CEAD11348BF42F48072624538BF6345CB
:1036B00004D280EA010000F00040704710B500F02D
:1036C0001AF800BF8900013E00F007B800F009B801
:1036D0005FEA410C5FEA1C6C08D080EA010000F050
:1036E00050B85FEA400C5FEA1C6CF6D14FF0004026
:1036F000A0F5800070470EF1020E2EF0030E5EF86A
:10370000044B244204D44FEA4102B2F17F4F11D856
:103710004FEA4003B3F17F4F0CD80ED14FEAD07C73
:10372000B2F17F4F0CEB4C0C0CF1020C08BF4CEBD0
:10373000D17C04E04FF0080C01E04FEAD17C0CEBA7
:103740004C0324FA03F404F00704B4F1040C06D289
:103750000EEB840CBDE810404CF0010C6047DFE834
:103760000CF0070802024FF00040A0F5800010BDE9
:103770000846420018BFD2F1807288BF00F00040B6
:1037800010BDFF2141EAD050C005704790EA010FFB
:1037900048BF81F000413FF5A4AD421A04D882F041
:1037A0000042A0EB020011444FEAD0524FF07F4C90
:1037B0001CEA410FA2EBD15318BF9CEA026F4AD01A
:1037C0004FF0004C4CEA00204CEA012121FA03FCA6
:1037D000B0EB0C0C0FD412F0FE0F36D05FEA4C00A9
:1037E0001DD5001240EBC25038BF70471CF03F0F90
:1037F00018BF70470BE0A2F101025FEA1C2040EB0A
:10380000C25038BF70471CF07F0F18BF7047C3F11C
:103810002003994014BF401E20F00100704780082B
:103820004FEA122308BF7047B0FA80FCA2EB0C02EB
:10383000CCF1280C60FA0CF093EA122F04BF00EBD5
:10384000C25070474FEAC3707047130A5FEADC103A
:1038500008BF7047F6E79CEA026F04D010EA5C0FDD
:1038600008BF0020704710B5FFF745FF40DFF63E68
:1038700081F000407047FCF739BE000000000000F6
:103880000000002F000000000700070000147F1454
:103890007F1400242A7F2A12006264081323003652
:1038A0004955225000000503000000001C22410081
:1038B000000041221C000014083E08140008083EC5
:1038C0000808000000A060000008080808080000C0
:1038D00060600000002010080402003E5149453E8F
:1038E0000000427F400000426151494600214145AD
:1038F0004B31001814127F10002745454539003C14
:103900004A494930000171090503003649494936E1
:1039100000064949291E00003636000000005636D0
:1039200000000008142241000014141414140000B4
:103930004122140800020151090600324959513E42
:10394000007C1211127C007F49494936003E4141FA
:103950004122007F4141221C007F49494941007FAB
:1039600009090901003E4149497A007F0808087F9A
:103970000000417F4100002040413F01007F0814CA
:103980002241007F40404040007F020C027F007FC8
:103990000408107F003E4141413E007F09090906AD
:1039A000003E4151215E007F0919294600464949E0
:1039B00049310001017F0101003F4040403F001FAD
:1039C0002040201F003F4038403F0063140814632C
:1039D00000070870080700615149454300007F4116
:1039E000410000552A552A55000041417F0000043E
:1039F0000201020400404040404000000102040077
:103A0000002054545478007F4844443800384444DB
:103A1000442000384444487F003854545418000867
:103A20007E0901020018A4A4A47C007F0804047885
:103A30000000447D4000004080847D00007F10280D
:103A400044000000417F4000007C04180478007CA2
:103A50000804047800384444443800FC2424241822
:103A60000018242418FC007C08040408004854545E
:103A7000542000043F444020003C4040207C001C77
:103A80002040201C003C4030403C0044281028448A
:103A9000001CA0A0A07C004464544C4414141414D2
:103AA00014140000000000000000000000000000EE
:103AB0000000000000F800000000000000333000AB
:103AC000000000100C06100C0600000000000000B2
:103AD000000040C07840C0784000043F04043F0428
:103AE0000400007088FC08300000001820FF211E30
:103AF0000000F008F000E018000000211C031E2167
:103B00001E0000F00888700000001E2123241927E1
:103B1000211010160E000000000000000000000040
:103B20000000000000E01804020000000007182058
:103B3000400000020418E0000000004020180700C8
:103B40000000404080F0804040000202010F01026E
:103B50000200000000F0000000000101011F01014F
:103B60000100000000000000000080B070000000B4
:103B70000000000000000000000000010101010140
:103B800001010000000000000000003030000000D3
:103B900000000000000080601804006018060100AA
:103BA000000000E010080810E000000F10202010B6
:103BB0000F00001010F8000000000020203F20201F
:103BC00000000070080808887000003028242221B6
:103BD000300000300888884830000018202020116C
:103BE0000E000000C02010F8000000070424243F4D
:103BF000240000F8088888080800001921202011F6
:103C00000E0000E0108888180000000F112020111D
:103C10000E0000380808C83808000000003F000007
:103C200000000070880808887000001C22212122F2
:103C30001C0000E010080810E000000031222211F2
:103C40000F00000000C0C000000000000030300085
:103C50000000000000800000000000008060000004
:103C6000000000008040201008000001020408103D
:103C7000200040404040404040000404040404044C
:103C800004000008102040800000002010080402FA
:103C90000100007048080808F000000000303601FC
:103CA0000000C030C828E810E000071827242314BB
:103CB0000B000000C038E0000000203C2302022777
:103CC000382008F8888888700000203F20202011C4
:103CD0000E00C030080808083800071820202010FF
:103CE000080008F808080810E000203F20202010F5
:103CF0000F0008F88888E8081000203F20202320C3
:103D0000180008F88888E8081000203F2000030009
:103D10000000C03008080838000007182020221EC4
:103D2000020008F808000008F808203F21010121DE
:103D30003F20000808F8080800000020203F20204D
:103D4000000000000808F8080800C08080807F009C
:103D5000000008F888C028180800203F20012638F5
:103D6000200008F8080000000000203F202020204C
:103D7000300008F8F800F8F80800203F003F003F46
:103D8000200008F830C00008F808203F200007187D
:103D90003F00E01008080810E0000F10202020105D
:103DA0000F0008F808080808F000203F2101010171
:103DB0000000E01008080810E0000F182424385014
:103DC0004F0008F8888888887000203F2000030C86
:103DD000302000708808080838000038202121228F
:103DE0001C00180808F8080818000000203F2000F0
:103DF000000008F808000008F808001F2020202014
:103E00001F000878880000C83808000007380E0135
:103E10000000F80800F80008F800033C0700073C21
:103E20000300081868808068180820302C03032CD1
:103E300030200838C800C83808000000203F2000A3
:103E4000000010080808C838080020382621202063
:103E50001800000000FE020202000000007F404047
:103E60004000000C30C000000000000000010638D7
:103E7000C00000020202FE000000004040407F003F
:103E80000000000004020202040000000000000024
:103E90000000000000000000000080808080808022
:103EA000808000020204000000000000000000000A
:103EB000000000008080808000000019242222225F
:103EC0003F2008F8008080000000003F11202011F2
:103ED0000E000000008080800000000E11202020D5
:103EE0001100000000808088F800000E11202010D2
:103EF0003F200000808080800000001F22222222BC
:103F00001300008080F0888888180020203F20203F
:103F100000000000808080808000006B9494949367
:103F2000600008F8008080800000203F2100002011
:103F30003F2000809898000000000020203F2020B3
:103F40000000000000809898000000C08080807F02
:103F5000000008F8000080808000203F24022D30FF
:103F60002000000808F8000000000020203F20206A
:103F700000008080808080808000203F20003F20E3
:103F8000003F8080008080800000203F21000020D2
:103F90003F200000808080800000001F2020202023
:103FA0001F00808000808000000080FFA120201181
:103FB0000E000000008080808000000E112020A0F4
:103FC000FF80808080008080800020203F212000B2
:103FD000010000008080808080000033242424249D
:103FE0001900008080E0808000000000001F202079
:103FF00000008080000000808000001F2020201032
:104000003F20808080000080808000010E30080604
:10401000010080800080008080800F300C030C3015
:104020000F0000808000808080000020312E0E3143
:104030002000808080000080808080818E70180643
:10404000010000808080808080000021302C2221AF
:10405000300000000000807C020200000000003FF1
:10406000404000000000FF00000000000000FF00D2
:1040700000000002027C800000000040403F000081
:10408000000000060101020204040000000000001C
:104090000000000002400000000000A0000000003E
:1040A00005400000000000C8000000000C400000B7
:1040B0000000409C00000000194000000020BCBE31
:1040C0000000000034400000BFC91B8E0000000447
:1040D000B5400000504BCFD06607E2CF0100000092
:1040E0006C4100003E8251AADFEEA73401000000BF
:1040F000D9420000DCB5A0E23A301F97FFFFFFFF76
:10410000B4450000FD25A0C8E9A3C14FFFFFFFFF94
:10411000FF3F00000000008000000000FF3F0000A3
:104120000000008000000000644100080000002042
:104130008000000028010008E44100088000002001
:1041400088100000440100081C000000430000002B
:10415000F8FFFFFF0C0000000E0000000F00000041
:104160002E00000000000000000000000000000021
:1041700000E0924500007A443333534000000000D1
:10418000000000000000000000000000000000002F
:10419000000000000000000000000000000000001F
:1041A0000000000000000000000000000000803F50
:1041B0000AD7233CCDCCCC3DCDCC6C4000000000D8
:1041C00001020304010203040607080902040608A9
:1041D00000A24A04000000000000000001020304E5
:0441E00006070809BD
:04000005080000ED02
:00000001FF
